{"abi":[{"type":"function","name":"NATIVE","inputs":[],"outputs":[{"name":"","type":"address","internalType":"address"}],"stateMutability":"view"},{"type":"error","name":"AMOUNT_MISMATCH","inputs":[]}],"bytecode":{"object":"0x6080604052348015600f57600080fd5b5060998061001e6000396000f3fe6080604052348015600f57600080fd5b506004361060285760003560e01c8063a0cf0aea14602d575b600080fd5b604773eeeeeeeeeeeeeeeeeeeeeeeeeeeeeeeeeeeeeeee81565b6040516001600160a01b03909116815260200160405180910390f3fea2646970667358221220690b4452a84936009126ed7781f389e763c3e701afc583883d78a5ce711efb5564736f6c63430008130033","linkReferences":{}},"methodIdentifiers":{"NATIVE()":"a0cf0aea"},"id":27}