{"abi":[{"type":"constructor","inputs":[{"name":"_allo","type":"address","internalType":"address"},{"name":"_name","type":"string","internalType":"string"}],"stateMutability":"nonpayable"},{"type":"receive","stateMutability":"payable"},{"type":"function","name":"NATIVE","inputs":[],"outputs":[{"name":"","type":"address","internalType":"address"}],"stateMutability":"view"},{"type":"function","name":"allocate","inputs":[{"name":"_data","type":"bytes","internalType":"bytes"},{"name":"_sender","type":"address","internalType":"address"}],"outputs":[],"stateMutability":"payable"},{"type":"function","name":"allocated","inputs":[{"name":"","type":"address","internalType":"address"},{"name":"","type":"address","internalType":"address"}],"outputs":[{"name":"","type":"bool","internalType":"bool"}],"stateMutability":"view"},{"type":"function","name":"allocationEndTime","inputs":[],"outputs":[{"name":"","type":"uint64","internalType":"uint64"}],"stateMutability":"view"},{"type":"function","name":"allocationStartTime","inputs":[],"outputs":[{"name":"","type":"uint64","internalType":"uint64"}],"stateMutability":"view"},{"type":"function","name":"allocators","inputs":[{"name":"","type":"address","internalType":"address"}],"outputs":[{"name":"","type":"bool","internalType":"bool"}],"stateMutability":"view"},{"type":"function","name":"approvalThreshold","inputs":[],"outputs":[{"name":"","type":"uint256","internalType":"uint256"}],"stateMutability":"view"},{"type":"function","name":"batchSetAllocator","inputs":[{"name":"_allocators","type":"address[]","internalType":"address[]"},{"name":"_flags","type":"bool[]","internalType":"bool[]"}],"outputs":[],"stateMutability":"nonpayable"},{"type":"function","name":"distribute","inputs":[{"name":"_recipientIds","type":"address[]","internalType":"address[]"},{"name":"_data","type":"bytes","internalType":"bytes"},{"name":"_sender","type":"address","internalType":"address"}],"outputs":[],"stateMutability":"nonpayable"},{"type":"function","name":"getAllo","inputs":[],"outputs":[{"name":"","type":"address","internalType":"contract IAllo"}],"stateMutability":"view"},{"type":"function","name":"getPayouts","inputs":[{"name":"_recipientIds","type":"address[]","internalType":"address[]"},{"name":"_data","type":"bytes[]","internalType":"bytes[]"}],"outputs":[{"name":"","type":"tuple[]","internalType":"struct IStrategy.PayoutSummary[]","components":[{"name":"recipientAddress","type":"address","internalType":"address"},{"name":"amount","type":"uint256","internalType":"uint256"}]}],"stateMutability":"view"},{"type":"function","name":"getPoolAmount","inputs":[],"outputs":[{"name":"","type":"uint256","internalType":"uint256"}],"stateMutability":"view"},{"type":"function","name":"getPoolId","inputs":[],"outputs":[{"name":"","type":"uint256","internalType":"uint256"}],"stateMutability":"view"},{"type":"function","name":"getRecipient","inputs":[{"name":"_recipientId","type":"address","internalType":"address"}],"outputs":[{"name":"","type":"tuple","internalType":"struct MicroGrantsBaseStrategy.Recipient","components":[{"name":"useRegistryAnchor","type":"bool","internalType":"bool"},{"name":"recipientAddress","type":"address","internalType":"address"},{"name":"requestedAmount","type":"uint256","internalType":"uint256"},{"name":"recipientStatus","type":"uint8","internalType":"enum IStrategy.Status"},{"name":"metadata","type":"tuple","internalType":"struct Metadata","components":[{"name":"protocol","type":"uint256","internalType":"uint256"},{"name":"pointer","type":"string","internalType":"string"}]}]}],"stateMutability":"view"},{"type":"function","name":"getRecipientStatus","inputs":[{"name":"_recipientId","type":"address","internalType":"address"}],"outputs":[{"name":"","type":"uint8","internalType":"enum IStrategy.Status"}],"stateMutability":"view"},{"type":"function","name":"getStrategyId","inputs":[],"outputs":[{"name":"","type":"bytes32","internalType":"bytes32"}],"stateMutability":"view"},{"type":"function","name":"increaseMaxRequestedAmount","inputs":[{"name":"_maxRequestedAmount","type":"uint256","internalType":"uint256"}],"outputs":[],"stateMutability":"nonpayable"},{"type":"function","name":"increasePoolAmount","inputs":[{"name":"_amount","type":"uint256","internalType":"uint256"}],"outputs":[],"stateMutability":"nonpayable"},{"type":"function","name":"initialize","inputs":[{"name":"_poolId","type":"uint256","internalType":"uint256"},{"name":"_data","type":"bytes","internalType":"bytes"}],"outputs":[],"stateMutability":"nonpayable"},{"type":"function","name":"isPoolActive","inputs":[],"outputs":[{"name":"","type":"bool","internalType":"bool"}],"stateMutability":"view"},{"type":"function","name":"isValidAllocator","inputs":[{"name":"_allocator","type":"address","internalType":"address"}],"outputs":[{"name":"","type":"bool","internalType":"bool"}],"stateMutability":"view"},{"type":"function","name":"maxRequestedAmount","inputs":[],"outputs":[{"name":"","type":"uint256","internalType":"uint256"}],"stateMutability":"view"},{"type":"function","name":"recipientAllocations","inputs":[{"name":"","type":"address","internalType":"address"},{"name":"","type":"uint8","internalType":"enum IStrategy.Status"}],"outputs":[{"name":"","type":"uint256","internalType":"uint256"}],"stateMutability":"view"},{"type":"function","name":"registerRecipient","inputs":[{"name":"_data","type":"bytes","internalType":"bytes"},{"name":"_sender","type":"address","internalType":"address"}],"outputs":[{"name":"recipientId","type":"address","internalType":"address"}],"stateMutability":"payable"},{"type":"function","name":"requiredToken","inputs":[],"outputs":[{"name":"","type":"address","internalType":"address"}],"stateMutability":"view"},{"type":"function","name":"requiredTokenBalance","inputs":[],"outputs":[{"name":"","type":"uint256","internalType":"uint256"}],"stateMutability":"view"},{"type":"function","name":"setAllocator","inputs":[{"name":"_allocator","type":"address","internalType":"address"},{"name":"_flag","type":"bool","internalType":"bool"}],"outputs":[],"stateMutability":"nonpayable"},{"type":"function","name":"setApprovalThreshold","inputs":[{"name":"_approvalThreshold","type":"uint256","internalType":"uint256"}],"outputs":[],"stateMutability":"nonpayable"},{"type":"function","name":"updatePoolTimestamps","inputs":[{"name":"_allocationStartTime","type":"uint64","internalType":"uint64"},{"name":"_allocationEndTime","type":"uint64","internalType":"uint64"}],"outputs":[],"stateMutability":"nonpayable"},{"type":"function","name":"useRegistryAnchor","inputs":[],"outputs":[{"name":"","type":"bool","internalType":"bool"}],"stateMutability":"view"},{"type":"function","name":"withdraw","inputs":[{"name":"_token","type":"address","internalType":"address"}],"outputs":[],"stateMutability":"nonpayable"},{"type":"event","name":"Allocated","inputs":[{"name":"recipientId","type":"address","indexed":true,"internalType":"address"},{"name":"status","type":"uint8","indexed":false,"internalType":"enum IStrategy.Status"},{"name":"sender","type":"address","indexed":false,"internalType":"address"}],"anonymous":false},{"type":"event","name":"Allocated","inputs":[{"name":"recipientId","type":"address","indexed":true,"internalType":"address"},{"name":"amount","type":"uint256","indexed":false,"internalType":"uint256"},{"name":"token","type":"address","indexed":false,"internalType":"address"},{"name":"sender","type":"address","indexed":false,"internalType":"address"}],"anonymous":false},{"type":"event","name":"AllocatorSet","inputs":[{"name":"allocator","type":"address","indexed":true,"internalType":"address"},{"name":"_flag","type":"bool","indexed":true,"internalType":"bool"},{"name":"sender","type":"address","indexed":false,"internalType":"address"}],"anonymous":false},{"type":"event","name":"ApprovalThresholdUpdated","inputs":[{"name":"approvalThreshold","type":"uint256","indexed":false,"internalType":"uint256"}],"anonymous":false},{"type":"event","name":"Distributed","inputs":[{"name":"recipientId","type":"address","indexed":true,"internalType":"address"},{"name":"recipientAddress","type":"address","indexed":false,"internalType":"address"},{"name":"amount","type":"uint256","indexed":false,"internalType":"uint256"},{"name":"sender","type":"address","indexed":false,"internalType":"address"}],"anonymous":false},{"type":"event","name":"Initialized","inputs":[{"name":"poolId","type":"uint256","indexed":false,"internalType":"uint256"},{"name":"data","type":"bytes","indexed":false,"internalType":"bytes"}],"anonymous":false},{"type":"event","name":"MaxRequestedAmountIncreased","inputs":[{"name":"maxRequestedAmount","type":"uint256","indexed":false,"internalType":"uint256"}],"anonymous":false},{"type":"event","name":"PoolActive","inputs":[{"name":"active","type":"bool","indexed":false,"internalType":"bool"}],"anonymous":false},{"type":"event","name":"Registered","inputs":[{"name":"recipientId","type":"address","indexed":true,"internalType":"address"},{"name":"data","type":"bytes","indexed":false,"internalType":"bytes"},{"name":"sender","type":"address","indexed":false,"internalType":"address"}],"anonymous":false},{"type":"event","name":"TimestampsUpdated","inputs":[{"name":"allocationStartTime","type":"uint64","indexed":false,"internalType":"uint64"},{"name":"allocationEndTime","type":"uint64","indexed":false,"internalType":"uint64"},{"name":"sender","type":"address","indexed":false,"internalType":"address"}],"anonymous":false},{"type":"event","name":"UpdatedRegistration","inputs":[{"name":"recipientId","type":"address","indexed":true,"internalType":"address"},{"name":"data","type":"bytes","indexed":false,"internalType":"bytes"},{"name":"sender","type":"address","indexed":false,"internalType":"address"}],"anonymous":false},{"type":"error","name":"ALLOCATION_ACTIVE","inputs":[]},{"type":"error","name":"ALLOCATION_NOT_ACTIVE","inputs":[]},{"type":"error","name":"ALLOCATION_NOT_ENDED","inputs":[]},{"type":"error","name":"ALREADY_INITIALIZED","inputs":[]},{"type":"error","name":"AMOUNT_MISMATCH","inputs":[]},{"type":"error","name":"AMOUNT_TOO_LOW","inputs":[]},{"type":"error","name":"ANCHOR_ERROR","inputs":[]},{"type":"error","name":"ARRAY_MISMATCH","inputs":[]},{"type":"error","name":"EXCEEDING_MAX_AMOUNT","inputs":[]},{"type":"error","name":"INVALID","inputs":[]},{"type":"error","name":"INVALID_ADDRESS","inputs":[]},{"type":"error","name":"INVALID_FEE","inputs":[]},{"type":"error","name":"INVALID_METADATA","inputs":[]},{"type":"error","name":"INVALID_REGISTRATION","inputs":[]},{"type":"error","name":"IS_APPROVED_STRATEGY","inputs":[]},{"type":"error","name":"MISMATCH","inputs":[]},{"type":"error","name":"NONCE_NOT_AVAILABLE","inputs":[]},{"type":"error","name":"NOT_APPROVED_STRATEGY","inputs":[]},{"type":"error","name":"NOT_ELIGIBLE","inputs":[]},{"type":"error","name":"NOT_ENOUGH_FUNDS","inputs":[]},{"type":"error","name":"NOT_IMPLEMENTED","inputs":[]},{"type":"error","name":"NOT_INITIALIZED","inputs":[]},{"type":"error","name":"NOT_PENDING_OWNER","inputs":[]},{"type":"error","name":"POOL_ACTIVE","inputs":[]},{"type":"error","name":"POOL_INACTIVE","inputs":[]},{"type":"error","name":"RECIPIENT_ALREADY_ACCEPTED","inputs":[]},{"type":"error","name":"RECIPIENT_ERROR","inputs":[{"name":"recipientId","type":"address","internalType":"address"}]},{"type":"error","name":"RECIPIENT_NOT_ACCEPTED","inputs":[]},{"type":"error","name":"REGISTRATION_ACTIVE","inputs":[]},{"type":"error","name":"REGISTRATION_NOT_ACTIVE","inputs":[]},{"type":"error","name":"UNAUTHORIZED","inputs":[]},{"type":"error","name":"ZERO_ADDRESS","inputs":[]}],"bytecode":{"object":"0x60c06040523480156200001157600080fd5b506040516200284a3803806200284a8339810160408190526200003491620000c5565b6001600160a01b03821660805260405182908290829082906200005c908290602001620001a0565b60408051601f19818403018152919052805160209091012060a0525050600160035550620001d592505050565b634e487b7160e01b600052604160045260246000fd5b60005b83811015620000bc578181015183820152602001620000a2565b50506000910152565b60008060408385031215620000d957600080fd5b82516001600160a01b0381168114620000f157600080fd5b60208401519092506001600160401b03808211156200010f57600080fd5b818501915085601f8301126200012457600080fd5b81518181111562000139576200013962000089565b604051601f8201601f19908116603f0116810190838211818310171562000164576200016462000089565b816040528281528860208487010111156200017e57600080fd5b620001918360208301602088016200009f565b80955050505050509250929050565b6020815260008251806020840152620001c18160408501602087016200009f565b601f01601f19169190910160400192915050565b60805160a05161263362000217600039600061032b015260008181610281015281816109a901528181610d050152818161122f015261158501526126336000f3fe6080604052600436106101db5760003560e01c806375777aaa11610102578063ba539f8f11610095578063eb11af9311610064578063eb11af93146105d8578063edd146cc14610605578063ef2920fc14610625578063f5b0dfb71461063857600080fd5b8063ba539f8f14610566578063bfa807311461057c578063d2e17f591461059c578063df868ed3146105c357600080fd5b8063a0016b8c116100d1578063a0016b8c146104d1578063a0cf0aea146104f1578063a15acfd514610519578063b2b878d01461053957600080fd5b806375777aaa1461045b5780637d0eef611461047b57806380faddeb146104915780638a204ed6146104b157600080fd5b806342fda9c71161017a57806351cff8d91161014957806351cff8d9146103bc57806357089739146103dc57806362812a39146103f65780636f46ffb91461042357600080fd5b806342fda9c71461031c5780634533d6781461034f5780634ab4ba42146103875780634d31d0871461039c57600080fd5b806315cc481e116101b657806315cc481e146102725780632b302cbd146102b95780632bbe0cae146102f457806338fff2d01461030757600080fd5b8062349237146101e7578063084ea36e146102105780630a6f0ee91461025057600080fd5b366101e257005b600080fd5b3480156101f357600080fd5b506101fd600c5481565b6040519081526020015b60405180910390f35b34801561021c57600080fd5b5061024061022b36600461196d565b600d6020526000908152604090205460ff1681565b6040519015158152602001610207565b34801561025c57600080fd5b5061027061026b366004611b0e565b610658565b005b34801561027e57600080fd5b507f00000000000000000000000000000000000000000000000000000000000000005b6040516001600160a01b039091168152602001610207565b3480156102c557600080fd5b506102406102d4366004611b85565b600960209081526000928352604080842090915290825290205460ff1681565b6102a1610302366004611bbe565b610678565b34801561031357600080fd5b506001546101fd565b34801561032857600080fd5b507f00000000000000000000000000000000000000000000000000000000000000006101fd565b34801561035b57600080fd5b5060055461036f906001600160401b031681565b6040516001600160401b039091168152602001610207565b34801561039357600080fd5b506002546101fd565b3480156103a857600080fd5b506102406103b736600461196d565b61069d565b3480156103c857600080fd5b506102706103d736600461196d565b6106be565b3480156103e857600080fd5b506004546102409060ff1681565b34801561040257600080fd5b5061041661041136600461196d565b6106e9565b6040516102079190611c8c565b34801561042f57600080fd5b506101fd61043e366004611d02565b600a60209081526000928352604080842090915290825290205481565b34801561046757600080fd5b50610270610476366004611d45565b6106fa565b34801561048757600080fd5b506101fd60075481565b34801561049d57600080fd5b506102706104ac366004611d81565b61070e565b3480156104bd57600080fd5b50600b546102a1906001600160a01b031681565b3480156104dd57600080fd5b506102706104ec366004611daf565b610722565b3480156104fd57600080fd5b506102a173eeeeeeeeeeeeeeeeeeeeeeeeeeeeeeeeeeeeeeee81565b34801561052557600080fd5b50610270610534366004611dc8565b610739565b34801561054557600080fd5b50610559610554366004611e8b565b61079b565b6040516102079190611f5f565b34801561057257600080fd5b506101fd60065481565b34801561058857600080fd5b50610270610597366004611daf565b610899565b3480156105a857600080fd5b5060045461036f90600160a81b90046001600160401b031681565b3480156105cf57600080fd5b506102406108ac565b3480156105e457600080fd5b506105f86105f336600461196d565b6108bb565b6040516102079190611fb7565b34801561061157600080fd5b50610270610620366004611fc5565b6108c6565b610270610633366004611bbe565b610950565b34801561064457600080fd5b50610270610653366004611daf565b610974565b61066061099e565b6106686109e9565b610673838383610a0c565b505050565b600061068261099e565b61068a6109e9565b6106948383610a14565b90505b92915050565b6001600160a01b0381166000908152600d602052604081205460ff16610697565b336106c881610cdb565b6106d0610d8d565b60006106dc8330610db1565b9050610673833383610dfa565b6106f161190f565b61069782610e34565b3361070481610cdb565b6106738383610fb0565b3361071881610cdb565b6106738383611049565b3361072c81610cdb565b610735826110ab565b5050565b3361074381610cdb565b825160005b818110156107945761078c8582815181106107655761076561200b565b602002602001015185838151811061077f5761077f61200b565b6020026020010151611049565b600101610748565b5050505050565b815181516060919081146107c257604051633da4c02b60e11b815260040160405180910390fd5b6000816001600160401b038111156107dc576107dc611991565b60405190808252806020026020018201604052801561082157816020015b60408051808201909152600080825260208201528152602001906001900390816107fa5790505b50905060005b828110156108905761086b8682815181106108445761084461200b565b602002602001015186838151811061085e5761085e61200b565b60200260200101516110e7565b82828151811061087d5761087d61200b565b6020908102919091010152600101610827565b50949350505050565b336108a381610cdb565b61073582611155565b60006108b66111ad565b905090565b6000610697826111ec565b6000806000838060200190518101906108df9190612021565b600b80546001600160a01b0319166001600160a01b038416179055600c819055919450925090506109108584611201565b7f91efa3d50feccde0d0d202f8ae5c41ca0b2be614cebcb2bd2f4b019396e6568a85856040516109419291906120d5565b60405180910390a15050505050565b61095861099e565b6109606109e9565b61096a82826112f6565b61073582826113bf565b61097c61099e565b806002600082825461098e9190612104565b9091555061099b90508181565b50565b336001600160a01b037f000000000000000000000000000000000000000000000000000000000000000016146109e75760405163075fd2b160e01b815260040160405180910390fd5b565b6001546000036109e757604051630f68fe6360e21b815260040160405180910390fd5b610673612117565b6000806000806000610a39604051806040016040528060008152602001606081525090565b87806020019051810190610a4d91906121e0565b600454929750929550935090915060ff1680610a7157506001600160a01b03831615155b945084610a7e5786610a80565b825b9550848015610a965750610a9486886116a2565b155b15610ab45760405163075fd2b160e01b815260040160405180910390fd5b6020810151511580610ac557508051155b15610ae35760405163c19e07c560e01b815260040160405180910390fd5b600654821115610b06576040516351c7ab5160e01b815260040160405180910390fd5b81600003610b145760065491505b6001600160a01b038416610b4b5760405163f4a513b960e01b81526001600160a01b03871660048201526024015b60405180910390fd5b6001600160a01b0386166000908152600860209081526040808320600a83528184206002855290925290912054151580610ba857506001600160a01b0387166000908152600a602090815260408083206003845290915290205415155b15610bc65760405163075fd2b160e01b815260040160405180910390fd5b6000600282015460ff166006811115610be157610be1611c04565b03610c2e57866001600160a01b03167fa197306e3dd5494a61a695381aa809a53b8e377a685e84e404a85d5a8da6cc628a8a604051610c2192919061224d565b60405180910390a2610c72565b866001600160a01b03167faf5977db3aa7e6fc7d05e21c791ebd214afa76da27c8d8ddc8e4a9f742d7b2368a8a604051610c6992919061224d565b60405180910390a25b80546001600160a81b0319166101006001600160a01b0387160260ff1916178615151781556001810183905581516003820190815560208301518391906004840190610cbe90826122ff565b505050600201805460ff1916600117905550939695505050505050565b6001546040516329e40d4b60e01b815260048101919091526001600160a01b0382811660248301527f000000000000000000000000000000000000000000000000000000000000000016906329e40d4b90604401602060405180830381865afa158015610d4c573d6000803e3d6000fd5b505050506040513d601f19601f82011682018060405250810190610d7091906123be565b61099b5760405163075fd2b160e01b815260040160405180910390fd5b60005460ff16156109e757604051630b18626760e41b815260040160405180910390fd5b600073eeeeeeeeeeeeeeeeeeeeeeeeeeeeeeeeeeeeeeed196001600160a01b03841601610de957506001600160a01b03811631610697565b610df383836117a4565b9050610697565b73eeeeeeeeeeeeeeeeeeeeeeeeeeeeeeeeeeeeeeed196001600160a01b03841601610e295761067382826117d0565b6106738383836117ec565b610e3c61190f565b6001600160a01b03808316600090815260086020908152604091829020825160a081018452815460ff8082161515835261010090910490951692810192909252600181015492820192909252600282015490926060840191166006811115610ea657610ea6611c04565b6006811115610eb757610eb7611c04565b81526020016003820160405180604001604052908160008201548152602001600182018054610ee590612277565b80601f0160208091040260200160405190810160405280929190818152602001828054610f1190612277565b8015610f5e5780601f10610f3357610100808354040283529160200191610f5e565b820191906000526020600020905b815481529060010190602001808311610f4157829003601f168201915b505050919092525050509052506005549091506001600160401b031642118015610f9e5750600281606001516006811115610f9b57610f9b611c04565b14155b15610fab57600360608201525b919050565b610fba8282611832565b600480546001600160401b03848116600160a81b90810267ffffffffffffffff60a81b1990931692909217928390556005805485831667ffffffffffffffff199091168117909155604080519390940490911682526020820152338183015290517f70d34c8836b996cffd8970ba5edf940d83ca7c8f30f738ea4fd8566a37d933599181900360600190a15050565b6001600160a01b0382166000818152600d6020908152604091829020805460ff191685151590811790915591513381529192917fb50515ac68c6752ce8d118ee9c125360859a03dcb13a0cfb6b3faad68217f4bd910160405180910390a35050565b60078190556040518181527f3105a3dc553e12034caac9827a83c245fe17eef4ee1eedb45238ac7449a5bbec906020015b60405180910390a150565b6040805180820190915260008082526020820152600061110684610e34565b604081015190915060028260600151600681111561112657611126611c04565b0361112f575060005b604080518082019091526020928301516001600160a01b03168152918201529392505050565b60065481101561117857604051631f2d84f160e31b815260040160405180910390fd5b60068190556040518181527fbcd4e1b1c11d47ad4c6c51ad73d8e77d29313bc1a491330186316a74a1f995f4906020016110dc565b60045460009042600160a81b9091046001600160401b031611806111db57506005546001600160401b031642115b156111e65750600090565b50600190565b60006111f782610e34565b6060015192915050565b61120a82611878565b80516004805460ff191691151591909117815560408051635ab1bd5360e01b815290517f00000000000000000000000000000000000000000000000000000000000000006001600160a01b031692635ab1bd53928082019260209290918290030181865afa158015611280573d6000803e3d6000fd5b505050506040513d601f19601f820116820180604052508101906112a491906123db565b600460016101000a8154816001600160a01b0302191690836001600160a01b031602179055506112dc81602001518260400151610fb0565b6112e98160800151611155565b61073581606001516110ab565b6001600160a01b0381166000908152600d602052604090205460ff1661132f5760405163075fd2b160e01b815260040160405180910390fd5b600c54600b546040516370a0823160e01b81526001600160a01b038481166004830152909116906370a0823190602401602060405180830381865afa15801561137c573d6000803e3d6000fd5b505050506040513d601f19601f820116820180604052508101906113a091906123f8565b1015610735576040516352c973a760e01b815260040160405180910390fd5b6113c76118c7565b600080838060200190518101906113de9190612411565b6001600160a01b038083166000818152600860209081526040808320948a1683526009825280832093835292905220549294509092509060ff168061143a575060028082015460ff16600681111561143857611438611c04565b145b156114635760405163f4a513b960e01b81526001600160a01b0384166004820152602401610b42565b6001600160a01b0380851660009081526009602090815260408083209387168352928152828220805460ff19166001908117909155600a909152918120908460068111156114b3576114b3611c04565b60068111156114c4576114c4611c04565b815260200190815260200160002060008282546114e19190612104565b92505081905550826001600160a01b03167fb735720d94de3d169791e2f713cbac8da02eb4d5a344d5a6d5ef542fdf3b24388386604051611523929190612440565b60405180910390a26007546001600160a01b0384166000908152600a602090815260408083206002845290915290205403610794576002818101805460ff1916909117905560015460405163068bcd8d60e01b815260048101919091526000907f00000000000000000000000000000000000000000000000000000000000000006001600160a01b03169063068bcd8d90602401600060405180830381865afa1580156115d4573d6000803e3d6000fd5b505050506040513d6000823e601f3d908101601f191682016040526115fc9190810190612471565b905060008260010154905080600260008282546116199190612524565b90915550506040820151835461163e919061010090046001600160a01b031683610dfa565b82546001840154604080516001600160a01b036101009094048416815260208101929092528883168282015251918716917fb5b51454adfa840bd593658325a60a50b0216f12eb5d2937efe6cea935675b7d9181900360600190a250505050505050565b6004805460405163dd93da4360e01b81526001600160a01b038581169382019390935260009283926101009004169063dd93da4390602401600060405180830381865afa1580156116f7573d6000803e3d6000fd5b505050506040513d6000823e601f3d908101601f1916820160405261171f9190810190612537565b600480548251604051635e8a791560e01b8152928301526001600160a01b038681166024840152929350610100900490911690635e8a791590604401602060405180830381865afa158015611778573d6000803e3d6000fd5b505050506040513d601f19601f8201168201806040525081019061179c91906123be565b949350505050565b6000816014526370a0823160601b60005260208060246010865afa601f3d111660205102905092915050565b60003860003884865af16107355763b12d13eb6000526004601cfd5b816014528060345263a9059cbb60601b60005260206000604460106000875af13d156001600051141716611828576390b8ec186000526004601cfd5b6000603452505050565b816001600160401b031642118061185a5750806001600160401b0316826001600160401b0316115b1561073557604051637fcce2a960e01b815260040160405180910390fd5b61188061099e565b600154156118a15760405163439a74c960e01b815260040160405180910390fd5b806000036118c257604051637fcce2a960e01b815260040160405180910390fd5b600155565b60045442600160a81b9091046001600160401b031611806118f257506005546001600160401b031642115b156109e75760405162b828c960e81b815260040160405180910390fd5b6040805160a0810182526000808252602082018190529181018290529060608201908152602001611953604051806040016040528060008152602001606081525090565b905290565b6001600160a01b038116811461099b57600080fd5b60006020828403121561197f57600080fd5b813561198a81611958565b9392505050565b634e487b7160e01b600052604160045260246000fd5b60405160c081016001600160401b03811182821017156119c9576119c9611991565b60405290565b604051601f8201601f191681016001600160401b03811182821017156119f7576119f7611991565b604052919050565b60006001600160401b03821115611a1857611a18611991565b5060051b60200190565b600082601f830112611a3357600080fd5b81356020611a48611a43836119ff565b6119cf565b82815260059290921b84018101918181019086841115611a6757600080fd5b8286015b84811015611a8b578035611a7e81611958565b8352918301918301611a6b565b509695505050505050565b60006001600160401b03821115611aaf57611aaf611991565b50601f01601f191660200190565b600082601f830112611ace57600080fd5b8135611adc611a4382611a96565b818152846020838601011115611af157600080fd5b816020850160208301376000918101602001919091529392505050565b600080600060608486031215611b2357600080fd5b83356001600160401b0380821115611b3a57600080fd5b611b4687838801611a22565b94506020860135915080821115611b5c57600080fd5b50611b6986828701611abd565b9250506040840135611b7a81611958565b809150509250925092565b60008060408385031215611b9857600080fd5b8235611ba381611958565b91506020830135611bb381611958565b809150509250929050565b60008060408385031215611bd157600080fd5b82356001600160401b03811115611be757600080fd5b611bf385828601611abd565b9250506020830135611bb381611958565b634e487b7160e01b600052602160045260246000fd5b60078110611c3857634e487b7160e01b600052602160045260246000fd5b9052565b60005b83811015611c57578181015183820152602001611c3f565b50506000910152565b60008151808452611c78816020860160208601611c3c565b601f01601f19169290920160200192915050565b6020815281511515602082015260018060a01b0360208301511660408201526040820151606082015260006060830151611cc96080840182611c1a565b50608083015160a083810152805160c084015260200151604060e084015261179c610100840182611c60565b6007811061099b57600080fd5b60008060408385031215611d1557600080fd5b8235611d2081611958565b91506020830135611bb381611cf5565b6001600160401b038116811461099b57600080fd5b60008060408385031215611d5857600080fd5b8235611d6381611d30565b91506020830135611bb381611d30565b801515811461099b57600080fd5b60008060408385031215611d9457600080fd5b8235611d9f81611958565b91506020830135611bb381611d73565b600060208284031215611dc157600080fd5b5035919050565b60008060408385031215611ddb57600080fd5b82356001600160401b0380821115611df257600080fd5b611dfe86838701611a22565b9350602091508185013581811115611e1557600080fd5b85019050601f81018613611e2857600080fd5b8035611e36611a43826119ff565b81815260059190911b82018301908381019088831115611e5557600080fd5b928401925b82841015611e7c578335611e6d81611d73565b82529284019290840190611e5a565b80955050505050509250929050565b60008060408385031215611e9e57600080fd5b82356001600160401b0380821115611eb557600080fd5b611ec186838701611a22565b9350602091508185013581811115611ed857600080fd5b8501601f81018713611ee957600080fd5b8035611ef7611a43826119ff565b81815260059190911b82018401908481019089831115611f1657600080fd5b8584015b83811015611f4e57803586811115611f325760008081fd5b611f408c8983890101611abd565b845250918601918601611f1a565b508096505050505050509250929050565b602080825282518282018190526000919060409081850190868401855b82811015611faa57815180516001600160a01b03168552860151868501529284019290850190600101611f7c565b5091979650505050505050565b602081016106978284611c1a565b60008060408385031215611fd857600080fd5b8235915060208301356001600160401b03811115611ff557600080fd5b61200185828601611abd565b9150509250929050565b634e487b7160e01b600052603260045260246000fd5b600080600083850360e081121561203757600080fd5b60a081121561204557600080fd5b5060405160a081018181106001600160401b038211171561206857612068611991565b604052845161207681611d73565b8152602085015161208681611d30565b6020820152604085015161209981611d30565b6040820152606085810151908201526080808601519082015260a08501519093506120c381611958565b8092505060c084015190509250925092565b82815260406020820152600061179c6040830184611c60565b634e487b7160e01b600052601160045260246000fd5b80820180821115610697576106976120ee565b634e487b7160e01b600052600160045260246000fd5b600082601f83011261213e57600080fd5b815161214c611a4382611a96565b81815284602083860101111561216157600080fd5b61179c826020830160208701611c3c565b60006040828403121561218457600080fd5b604051604081016001600160401b0382821081831117156121a7576121a7611991565b816040528293508451835260208501519150808211156121c657600080fd5b506121d38582860161212d565b6020830152505092915050565b600080600080608085870312156121f657600080fd5b845161220181611958565b602086015190945061221281611958565b6040860151606087015191945092506001600160401b0381111561223557600080fd5b61224187828801612172565b91505092959194509250565b6040815260006122606040830185611c60565b905060018060a01b03831660208301529392505050565b600181811c9082168061228b57607f821691505b6020821081036122ab57634e487b7160e01b600052602260045260246000fd5b50919050565b601f82111561067357600081815260208120601f850160051c810160208610156122d85750805b601f850160051c820191505b818110156122f7578281556001016122e4565b505050505050565b81516001600160401b0381111561231857612318611991565b61232c816123268454612277565b846122b1565b602080601f83116001811461236157600084156123495750858301515b600019600386901b1c1916600185901b1785556122f7565b600085815260208120601f198616915b8281101561239057888601518255948401946001909101908401612371565b50858210156123ae5787850151600019600388901b60f8161c191681555b5050505050600190811b01905550565b6000602082840312156123d057600080fd5b815161198a81611d73565b6000602082840312156123ed57600080fd5b815161198a81611958565b60006020828403121561240a57600080fd5b5051919050565b6000806040838503121561242457600080fd5b825161242f81611958565b6020840151909250611bb381611cf5565b6040810161244e8285611c1a565b6001600160a01b039290921660209190910152919050565b8051610fab81611958565b60006020828403121561248357600080fd5b81516001600160401b038082111561249a57600080fd5b9083019060c082860312156124ae57600080fd5b6124b66119a7565b8251815260208301516124c881611958565b602082015260408301516124db81611958565b60408201526060830151828111156124f257600080fd5b6124fe87828601612172565b6060830152506080830151608082015260a083015160a082015280935050505092915050565b81810381811115610697576106976120ee565b60006020828403121561254957600080fd5b81516001600160401b038082111561256057600080fd5b9083019060c0828603121561257457600080fd5b61257c6119a7565b825181526020830151602082015260408301518281111561259c57600080fd5b6125a88782860161212d565b6040830152506060830151828111156125c057600080fd5b6125cc87828601612172565b6060830152506125de60808401612466565b60808201526125ef60a08401612466565b60a08201529594505050505056fea2646970667358221220ce0ef155115bf407dc4e439135d0b15568443e7f4f4725206106c3024ca3f6c364736f6c63430008130033","linkReferences":{}},"methodIdentifiers":{"NATIVE()":"a0cf0aea","allocate(bytes,address)":"ef2920fc","allocated(address,address)":"2b302cbd","allocationEndTime()":"4533d678","allocationStartTime()":"d2e17f59","allocators(address)":"084ea36e","approvalThreshold()":"7d0eef61","batchSetAllocator(address[],bool[])":"a15acfd5","distribute(address[],bytes,address)":"0a6f0ee9","getAllo()":"15cc481e","getPayouts(address[],bytes[])":"b2b878d0","getPoolAmount()":"4ab4ba42","getPoolId()":"38fff2d0","getRecipient(address)":"62812a39","getRecipientStatus(address)":"eb11af93","getStrategyId()":"42fda9c7","increaseMaxRequestedAmount(uint256)":"bfa80731","increasePoolAmount(uint256)":"f5b0dfb7","initialize(uint256,bytes)":"edd146cc","isPoolActive()":"df868ed3","isValidAllocator(address)":"4d31d087","maxRequestedAmount()":"ba539f8f","recipientAllocations(address,uint8)":"6f46ffb9","registerRecipient(bytes,address)":"2bbe0cae","requiredToken()":"8a204ed6","requiredTokenBalance()":"00349237","setAllocator(address,bool)":"80faddeb","setApprovalThreshold(uint256)":"a0016b8c","updatePoolTimestamps(uint64,uint64)":"75777aaa","useRegistryAnchor()":"57089739","withdraw(address)":"51cff8d9"},"id":3}